S3150000800000B500F06BFC00F0B3FB08BC184748460F
S31500008010704781467047000008B50322011C684678
S3150000802000F0F0FB012100AB987800280BD000206F
S3150000803002E04906090E013000AB9A780A40F8D0F2
S3150000804001B008BC184700AB5878002809D00820B2
S3150000805002E04906090E013000AB5A780A40F8D012
S31500008060EEE700AB1878002809D0102002E0490698
S31500008070090E013000AB1A780A40F8D0E0E700207C
S31500008080DEE708B50322011C684600F0BBFB00AB27
S31500008090187800280BD0052000AB1978490819700C
S315000080A0013819780029F7D101B008BC184700AB90
S315000080B05878002809D00D2000AB59784908597026
S315000080C0013859780029F7D1EEE700AB98780028F7
S315000080D009D0152000AB997849089970013899782C
S315000080E00029F7D1E0E70020DEE730B4041C0020C9
S315000080F00023E15C0022CD0700D50130490801329A
S31500008100082AF8DB0133032BF3DB30BC704701226E
S315000081108A40111CCA02D20E02700A04120E427064
S315000081208170704701788022002904D049080170C7
S3150000813000D1427070474178002904D04908417047
S31500008140F8D18270704781780029FBD04908817088
S31500008150704718B4002200AB5A701A700CE000ABDE
S315000081601B78845C5C4000AB1C70841864785B7878
S315000081705C4000AB5C7002328A42F0DB00AB1878E0
S31500008180597818BC000240180004000C704738B536
S31500008190041C0D1C0322E11D684600F033FB00ABF6
S315000081A01878C006C00E18701878000459780902AD
S315000081B008189978081840190102090E1970010467
S315000081C0090E59709870E1791878E022114040182C
S315000081D0E071587820729878607238BC08BC1847ED
S315000081E0F8B40C790D68042C01D30C2C03D9772034
S315000081F0C043F8BC70472107090F084318700020D8
S31500008200032103E0165C01305E5401310528F9DBD9
S315000082100020012100226608009609E02E5C2F1836
S315000082207F7836010230F619D0365E5401310132BC
S31500008230009E9642F2DCE20706D55A5C285C1207DD
S31500008240120F0001801858540020D2E7FFB58FB0F6
S315000082500A220BA80F9900F0D5FA0F9903220731CD
S3150000826002A800F0CFFA00AB187AC006C00E18724A
S31500008270187A00280BD1587A002808D1987A002855
S3150000828005D16D20C04313B0F0BC08BC18470822C6
S3150000829009A8119900F0B6FA0CA903310E9102A8AB
S315000082A0FFF7BAFE011C01A8FFF731FF01A8FFF78F
S315000082B0E8FE011C10980A2359430C182789082147
S315000082C0201CFFF746FF061CB74226D0012501A851
S315000082D0FFF728FF00AB1879002805D15879002848
S315000082E002D19879002800D06D0000AB18790028DB
S315000082F0EDD158790028EAD198790028E7D1291CD0
S315000083000BA8FFF744FF032202A80E9900F07AFAA1
S3150000831000AB187AC006C00E1872B742BFD1082249
S31500008320211C07A800F06EFA08ABD878FF25684034
S31500008330D8700822211C05A800F064FA00AB987ECC
S315000083406840987608224027BC4607A909A813DF8B
S3150000835008202E27BC4603AB07AA09A913DF08226B
S315000083604027BC4607A903A813DF082203A91198D2
S3150000837000F048FA1298082205A9406800F042FA6F
S3150000838012980A220BA9006800F03CFA02A8FFF72F
S31500008390ACFE0A2854DA01A8FFF7C4FE00AB187930
S315000083A0002805D15879002802D1987900283FD0B5
S315000083B00AAD01356E1D0822311C09A800F022FA0B
S315000083C00322281C4127BC4601A913DF0822211CD1
S315000083D04027BC4609A813DF221C08202E27BC46CE
S315000083E009AB09A913DF0822211C4027BC4609A8AE
S315000083F013DF01A8FFF745FE011C10980A23594315
S315000084000F180822381C09A900F0FCF9082109A850
S31500008410FFF79FFE388101A8FFF784FE00AB1879AD
S315000084200028C8D158790028C5D198790028C2D12A
S3150000843020890130208101210BA8FFF7A8FE29E041
S31500008440208901302081012401A8FFF76BFE00ABD3
S315000084501879002805D15879002802D19879002882
S3150000846000D0640000AB18790028EDD158790028B7
S31500008470EAD198790028E7D1211C0BA8FFF787FEDF
S31500008480032202A80E9900F0BDF900AB187AC006C7
S31500008490C00E18720A220BA90F9800F0B3F900203B
S315000084A0F1E6FFB5151C0C1C1E1C97B02021684672
S315000084B000F0DAF9301C5627BC4613DF061C68D0DC
S315000084C0159416951420B727BC460CA913DF00286F
S315000084D066D10F98002863D00CA80A900F9808ABB5
S315000084E0187305AC179802340125052812D1B9274F
S315000084F0BC4613DF10AB1D735D739D73DD73BC4605
S3150000850013DF10AB1D74231C302013AA0AA9FFF732
S3150000851067FE0BE00522FF2113A800F0BEF9231C1D
S3150000852000203A27BC4613AA0AA913DF002838D12F
S315000085300822201C4027BC4615A913DFB068AA4FA5
S31500008540002827D103A8089011A80990311C0C31E6
S31500008550221C301CDE3008ABFFF778FE041C0FD15E
S31500008560301CFF300130056045600C21816003211D
S31500008570C16011AA06CA103006C01220019018E088
S315000085806D20C043B0602021684600F06DF93C1CA8
S315000085900FE00CE02021684600F066F93C1C08E07C
S315000085A002E0914C033404E08F4C043401E08E4C1D
S315000085B005348E48009001980430019002941527E6
S315000085C0BC468BA18BA013DF051C15D02B1C2022CB
S315000085D001211727BC46684613DF8021281C1E2769
S315000085E0BC4613DF0221C8014B27BC4613DF281CFB
S315000085F01427BC4613DF01E07B4C023414210CA87F
S3150000860000F032F92021684600F02EF9201C1BB03C
S31500008610F0BC08BC184780B55627BC4613DF0028B7
S315000086200BD9021C011CE831F832DE303B27BC4670
S3150000863013DF002080BC08BC18476B480530F9E7FB
S31500008640F8B50E1C051C101C5627BC4613DF002867
S315000086501DD9041C281C304303D0201C803085679C
S31500008660C667201CE0304179E022114041710025A7
S315000086708571C571221C211CF8310C3202383C2749
S31500008680BC4613DFA5600020F8BC08BC1847564856
S315000086900530F9E787B581B0101C5627BC4613DFB5
S315000086A0002819D900AB99888030031C4033D98340
S315000086B000ABD988031C4033198400AB1989031C0D
S315000086C04033598400AB5989031C403399840020F8
S315000086D004B080BC08BC184743480530F8E798B595
S315000086E05627BC4613DF002818D9041C201CE83086
S315000086F00021002200230EC008C006C0D221F43893
S3150000870000F0B2F80A21201CDE3000F0B2F86D202D
S31500008710C043A060002098BC08BC1847324805300A
S31500008720F9E780B55627BC4613DF002803D98068D1
S3150000873080BC08BC18472C480530F9E7F8B5061C7C
S31500008740151C0C1C181C5627BC4613DF00280CD918
S31500008750092E03D180308466C56602E08030046746
S3150000876045670020F8BC08BC18471F480530F9E7E4
S31500008770B0B50D1C111C1A1C204B7B44204C4C44DC
S3150000878023600A2829D202A31B5C5B009F440000D9
S315000087902505090D17171D211111101CFFF73BFFA9
S315000087A01DE0281CFFF74CFF19E0281CFFF772FF9D
S315000087B015E0131C0A1C291CFFF7C0FF0FE0131C51
S315000087C00A1C291CFFF76DFE09E0101CFFF787FF46
S315000087D005E0101CFFF7A5FF01E003480138002162
S315000087E02160B0BC08BC1847FBFBFFFF000102403C
S315000087F0770000004941505000000000460100008B
S315000088000400000080B40027BC4680BC12DF80B4A0
S315000088100127BC4680BC12DF80B40227BC4680BC60
S3150000882012DF80B40327BC4680BC12DF80B4042765
S31500008830BC4680BC12DF80B40527BC4680BC12DF74
S3150000884080B40627BC4680BC12DF80B40727BC462E
S3150000885080BC12DF80B40827BC4680BC12DF80B41F
S315000088600927BC4680BC12DF80B40A27BC4680BC00
S3150000887012DF80B40B27BC4680BC12DF80B40C2705
S31500008880BC4680BC12DF80B40D27BC4680BC12DF1C
S3150000889080B40E27BC4680BC12DF80B40F27BC46CE
S315000088A080BC12DF80B41027BC4680BC12DF80B4C7
S315000088B01127BC4680BC12DF80B41227BC4680BCA0
S315000088C012DF0000534348455F564552533A5363FF
S315000088D06844756B707420303130330010B47C46B8
S311000088E00634A14610BC704700000000E2
S705000080007A
