S3150000800000B500F0F3F900F007F808BC1847484639
S315000080107047814670470000FFB585B00E1C4A4D7B
S315000080201527BC4649A14AA013DF041C71D0059A46
S3150000803001218902901988425CDCE021201C1E2760
S31500008040BC4613DF211C012000F0B1F80A250127E8
S3150000805008E0231C4049321C6420494400F0E8F83B
S31500008060071C013D002F01D0002DF2DC211C012050
S3150000807000F09DF8002F3AD1374848440490324D1D
S3150000808003355627BC46089813DF002807D1049805
S315000080907F21C9004F270CC80898BC4613DF00286B
S315000080A02ED000250799CA018905890D002A09DA0B
S315000080B0059A83180A182849301C2F27BC464944BC
S315000080C013DF1DE0079A920109D5059A83180A184D
S315000080D02149301C3127BC46494413DF10E0059A7C
S315000080E01D498018321C494400F0E8F808E0164D96
S315000080F0053D05E0211C022000F059F8124D073D10
S31500008100164801900420029003950C22231C01219D
S3150000811000E013E01727BC4601A813DFFF2001305B
S3150000812000214B27BC4613DF201C1427BC4613DF57
S31500008130094801218902484400F0F7F8281C09B0D3
S31500008140F0BC08BC18470000FDFBFFFF727700007B
S3150000815049415050000000000400000000040240A5
S31500008160F8B50C1C161C002500F008F9011CFF20B0
S3150000817001304B27BC4613DF002813D0301C1A27CA
S31500008180BC4613DF0006000E012804D0022804D0E6
S31500008190032804D104E0012002E0022000E00420CC
S315000081A0207000E00125281CF8BC08BC184780B5E3
S315000081B0012804D0022804D0032804D104E00120B9
S315000081C002E0022000E004204A27BC4613DFFF201D
S315000081D0013000214B27BC4613DF80BC08BC0020C1
S315000081E01847F8B50D1C161C002400F0C7F8011C32
S315000081F0FF2001304B27BC4613DF002805D0301C7A
S315000082001A27BC4613DF287000E00124201CF8BCA6
S3150000821008BC184780B54A27BC4613DFFF2001304B
S3150000822000214B27BC4613DF80BC08BC0020184742
S31500008230FFB5161C0025002481B000F09FF80090C1
S3150000824012E0FF2001304B27BC46009913DF0028BF
S3150000825009D00298321B001901211627BC46049B3F
S3150000826013DF041900E00125B44201D2002DE8D045
S31500008270281C05B0F0BC08BC1847F7B50E1C002535
S31500008280002412E00098321B001901211727BC4672
S31500008290029B13DF0419FF212D31FF2001304B27EC
S315000082A0BC4613DF002800D10125B44201D2002DBF
S315000082B0E8D0281CFEBC08BC1847000080B4002784
S315000082C0BC4680BC12DF80B40127BC4680BC12DFEE
S315000082D080B40227BC4680BC12DF80B40327BC46AC
S315000082E080BC12DF80B40427BC4680BC12DF80B499
S315000082F00527BC4680BC12DF80B40627BC4680BC7E
S3150000830012DF80B40727BC4680BC12DF80B4082782
S31500008310BC4680BC12DF80B40927BC4680BC12DF95
S3150000832080B40A27BC4680BC12DF80B40B27BC464B
S3150000833080BC12DF80B40C27BC4680BC12DF80B440
S315000083400D27BC4680BC12DF80B40E27BC4680BC1D
S3150000835012DF80B40F27BC4680BC12DF80B4102722
S31500008360BC4680BC12DF80B41127BC4680BC12DF3D
S3150000837080B41227BC4680BC12DF00007847C04696
S31500008380010000EA1FFF2FE1000000000030B0E10D
S31500008390000060420A1040E2200140E0200280E036
S315000083A0200480E0200880E0A001A0E1002180E018
S315000083B0821051E0010080520A1081420330B0E180
S315000083C000006042001061421EFF2FE110FF2FE106
S315000083D011FF2FE112FF2FE113FF2FE114FF2FE111
S315000083E015FF2FE116FF2FE117FF2FE110B47C4692
S311000083F00634A14610BC704700000000D7
S705000080007A
