S3150000800000B500F0BBF900F067F808BC1847484611
S315000080107047814670470000FEB5051C00241527F1
S31500008020BC462EA12EA013DF061C12D0311C012047
S3150000803000F085F82C480090042001900295321C2F
S315000080400C21684600F0E1F8301C1427BC4613DF0B
S3150000805000E0264C201CFEBC08BC1847FFB50C1CD3
S31500008060181C81B000255627BC4613DF061C2AD0F3
S315000080700199080C01990F043F0C0121890202198C
S315000080808A420FDC3A198A420CDC039A12198A4298
S3150000809008DC082806DB082F04DB039A082A01DB24
S315000080A0002C02DC114D083D0FE0039A3118B01880
S315000080B00090221C00F0CAF8F119221C4027BC4689
S315000080C0009813DF01E0094D0335281CFFF7A4FFD4
S315000080D005B0F0BC08BC1847C0E7000077000000F8
S315000080E0494150500000000000020340FDFBFFFF25
S315000080F0F8B50C1C161C002500F008F9011CFF2021
S3150000810001304B27BC4613DF002813D0301C1A273A
S31500008110BC4613DF0006000E012804D0022804D056
S31500008120032804D104E0012002E0022000E004203C
S31500008130207000E00125281CF8BC08BC184780B553
S31500008140012804D0022804D0032804D104E0012029
S3150000815002E0022000E004204A27BC4613DFFF208D
S31500008160013000214B27BC4613DF80BC08BC002031
S315000081701847F8B50D1C161C002400F0C7F8011CA2
S31500008180FF2001304B27BC4613DF002805D0301CEA
S315000081901A27BC4613DF287000E00124201CF8BC17
S315000081A008BC184780B54A27BC4613DFFF200130BC
S315000081B000214B27BC4613DF80BC08BC00201847B3
S315000081C0FFB5161C0025002481B000F09FF8009032
S315000081D012E0FF2001304B27BC46009913DF002830
S315000081E009D00298321B001901211627BC46049BB0
S315000081F013DF041900E00125B44201D2002DE8D0B6
S31500008200281C05B0F0BC08BC1847F7B50E1C0025A5
S31500008210002412E00098321B001901211727BC46E2
S31500008220029B13DF0419FF212D31FF2001304B275C
S31500008230BC4613DF002800D10125B44201D2002D2F
S31500008240E8D0281CFEBC08BC1847000080B40027F4
S31500008250BC4680BC12DF80B40127BC4680BC12DF5E
S3150000826080B40227BC4680BC12DF80B40327BC461C
S3150000827080BC12DF80B40427BC4680BC12DF80B409
S315000082800527BC4680BC12DF80B40627BC4680BCEE
S3150000829012DF80B40727BC4680BC12DF80B40827F3
S315000082A0BC4680BC12DF80B40927BC4680BC12DF06
S315000082B080B40A27BC4680BC12DF80B40B27BC46BC
S315000082C080BC12DF80B40C27BC4680BC12DF80B4B1
S315000082D00D27BC4680BC12DF80B40E27BC4680BC8E
S315000082E012DF80B40F27BC4680BC12DF80B4102793
S315000082F0BC4680BC12DF80B41127BC4680BC12DFAE
S3150000830080B41227BC4680BC12DF00007847C04606
S31500008310010000EA1FFF2FE1000000000030B0E17D
S31500008320000060420A1040E2200140E0200280E0A6
S31500008330200480E0200880E0A001A0E1002180E088
S31500008340821051E0010080520A1081420330B0E1F0
S3150000835000006042001061421EFF2FE110FF2FE176
S3150000836011FF2FE112FF2FE113FF2FE114FF2FE181
S3150000837015FF2FE116FF2FE117FF2FE110B47C4602
S311000083800634A14610BC70470000000047
S705000080007A
